:020000040800F2
:10000000909D002049010008E9EF0008E143000845
:100010008B4A0008FD2A0008ED17010800000000C7
:10002000000000000000000000000000310A01088C
:10003000B132000800000000C7010008F10D0108FE
:100040006301000863010008630100089D010108C5
:1000500063010008630100086301000863010008F0
:1000600063010008630100086301000863010008E0
:1000700063010008630100086301000863010008D0
:1000800063010008630100086301000863010008C0
:10009000630100086301000863010008B53200082D
:1000A00063010008630100086301000863010008A0
:1000B0009D0E010863010008F90E010863010008A4
:1000C0006301000863010008630100086301000880
:1000D0006301000863010008551501086301000869
:1000E0006301000863010008630100086301000860
:1000F0006301000863010008630100086301000850
:10010000630100086301000863010008630100083F
:10011000630100086301000863010008630100082F
:10012000630100086301000863010008630100081F
:10013000DFF810D002F072FA00480047A923010846
:10014000AFF30080909D0020064880470648004796
:10015000FEE7FEE7FEE7FEE7FEE7FEE7FEE7FEE777
:10016000FEE7FEE73D0E01083101000872B6704758
:1001700062B67047EFF3108072B6704780F3108854
:1001800070470000EFF3108072B6704780F310885C
:10019000704724484FF0FF010170002080F3098868
:1001A0001D480121017020484FF08051016062B666
:1001B000FEE71D484FF08051016070471A484FF02C
:1001C000805101607047EFF3098028B1203880E842
:1001D000F00F12490968086000B50A4880475DF8C9
:1001E00004EB0B480B490A7802700C480C490A686A
:1001F0000260106890E8F00F203080F309884EF01C
:10020000040E704705F600085DF10008CD040020DB
:10021000CF040020D0040020D6040020DC040020FD
:10022000E404002022ED00E004ED00E0202070470F
:10023000FE4902780A7042784A7082788A70C078E3
:10024000C8700868704770B50546062002F0B6FC15
:10025000FF2818D0000616D5F44CE570042002F0F3
:10026000ADFC8006FAD409E0042002F0A7FC800669
:10027000FAD5042002F0A2FC8006FAD4E078411EF0
:10028000E1700028F0D170BD10B5E84C0120543C5D
:1002900060700020A0720146082002F0DAFC607A4B
:1002A000C021002800D18021062002F0D2FC82204B
:1002B00010BDDE4910B55439487A092401280BD005
:1002C00002280BD003280ED000204872092002F02B
:1002D00075FC2021084010BD022000E0032002F040
:1002E0006DFC204010BD032002F068FC9021084006
:1002F000000910BDF8B5CD4D002620272C46EE7024
:10030000543C267012F084FD092002F057FCC0070F
:1003100039D01121092002F09CFC0A2002F04EFC89
:100320006179002907D04107490F032907D1C00689
:1003300017D5304677E00107090F0229F9D00107E8
:10034000090F0A2902D12179090613D4810703D0A4
:100350000007000F203066E0092002F02FFC800724
:1003600011D4E878401CC0B2E87021790907090F60
:10037000884206D80E2002F021FC082101430E20FD
:1003800024E038464FE0FF2004E0042002F016FC91
:100390002078401E207020780028F6D1092002F035
:1003A0000DFCE870800734D5FFF783FF09280BD0D8
:1003B00001206070A6721321092002F04AFC607AC5
:1003C000C021002806D104E00221092002F041FCEE
:1003D00097E78021062002F03CFCFFF76AFF002827
:1003E00015D002206070E878617AC009C001012947
:1003F00007D9022002F0E2FB617A032900D010271E
:100400003840002801D015200DE013200BE0162005
:1004100009E01F21092002F01CFCE878000701D543
:10042000062000E005202070F8BD80490020C04370
:100430001839086000203C3948737047F8B501202E
:10044000FFF701FF08210B2002F003FCD0210D2053
:1004500002F0FFFB08210E2002F0FBFB734C00268C
:10046000543C6671FFF746FF207800281FD1012019
:100470006071462002F0A2FB00283ED0FFF7D5FFB6
:1004800008270120FFF7DFFE90210D2002F0E1FB9D
:100490000E2002F093FB80214840384301460E2095
:1004A00002F0D7FBFFF726FF2078002801D0207844
:1004B000F8BD0B2002F082FB2070472002F07EFB8B
:1004C0005A4DE870616B42182178C02002F04AFB57
:1004D000E87821784018C1B2E970472002F0B9FBF2
:1004E000462002F06BFBE978884205D92078400766
:1004F000C7D017202070F8BD66710120FFF7A3FE5A
:1005000000210B2002F0A5FB61790920002900D110
:10051000012001010D2002F09CFBC8210E2002F0F9
:1005200098FBFFF7E7FEF8BD70B5062002F046FB2A
:100530004021084001468031062002F08AFB092054
:1005400002F03CFB800709D5FFF7B3FE092801D074
:10055000FFF79AFE1321092002F07BFBFFF7A9FEAB
:10056000002865D0314C543C6078002502260228D2
:1005700002D26670A57256E0A07A002853D0607A45
:10058000801CC1B2082002F064FBE07A002823D06E
:1005900001F067FC207800280AD02078162847D080
:1005A0002078800602D52078800741D0667028E048
:1005B000606B8078C00704D0667001F044FCFFF7E0
:1005C0003DFF606B0078C007F0D0E07A1030C1B218
:1005D000082002F03EFB26E0C0B2401CE07201F0B1
:1005E00040FC207800280FD02078162820D02078D2
:1005F000800602D5207880071AD0E07AA17A884256
:10060000EAD3E572842070BD606B8078C00703D0A8
:1006100001F019FCFFF712FF606B0178C907ECD0FD
:1006200040788007E9D4002070BD01E04C0500202F
:10063000FFF72AFEF8E710B5FF4A5378834200D34C
:1006400051705078884201D1002010BD01205070B7
:10065000FFF76AFF0028F8D1832010BD70B5F64C73
:10066000002565702046403005705521802002F03D
:10067000F0FAAA21812002F0ECFA802002F09EFA22
:10068000552804D1812002F099FAAA2801D08120AE
:10069000CAE70021062002F0DCFA00210E2002F059
:1006A000D8FA85202071012025724002E08265720F
:1006B000A5711F21092002F0CCFA072002F07EFA72
:1006C00001090901491C02200143072002F0C1FA77
:1006D0004021052002F0BDFAFFF7D6FD0020A3E778
:1006E00010B5D548407A02280BD0032810D002203C
:1006F00002F064FA01090901491C022002F0A9FA7A
:1007000010BD032002F05AFA01090901491C05E055
:10071000032002F053FA0107090F10310320EDE71F
:1007200010B5C54CC5A15434E070082002F07EFA23
:10073000E078C14A0109092902D0012908D00EE058
:100740000007000F8030E07090794006400E05E011
:100750000007000FE0709079BF2108409071E178A8
:10076000442002F076FAFFF769FE10BD70B5B24C76
:10077000207825465435A8700220FFF764FDFFF766
:10078000D3FE20702078002801D020784CE7ADA15E
:10079000082002F04BFA217C442002F05AFAFFF7BD
:1007A0004DFE2078162803D02078002802D007E0DC
:1007B000822039E7607CFFF7B3FFA07CFFF7B0FF32
:1007C0000220FFF740FDA87820702DE710B59A4C65
:1007D0000D20617C02F03DFAA1790E2002F039FA79
:1007E0000120607110BDF8B50027984E924C7770CB
:1007F0007780E079254670715435AF7094A104205C
:1008000002F014FA914A1221482002F0E5F91F2162
:100810000B2002F01EFAA17C0D2002F01AFAA17939
:100820000E2002F016FA6771FFF764FD2078162893
:1008300006D0207800280AD0A878002854D101E0FA
:100840008220F8BDFFF792FF0120A870D6E7A079BB
:1008500040214840A071307800282BD0FFF7B6FF28
:10086000FFF748FD2078002806D021782E293BD1BB
:10087000607CFFF755FF1DE0A179802041402746AD
:10088000A1710B2002F09AF9E8704F2002F096F95E
:10089000032804D1532002F091F9122806D0FFF763
:1008A000C4FDE978C0207A6B02F05CF93078E97811
:1008B000401A3070FFF78AFFFFF71CFD20780028F0
:1008C00012D1A07980214840A071CC2002F076F9A5
:1008D000E8700B2002F072F901461F200D2902D1A9
:1008E000E978022903D32070FFF740FFF8BD002903
:1008F00001D02070F8BD0020F8BD544A00291170C5
:1009000001D0802300E00023137106239371D0717E
:100910000020107250729072D172107350739073E5
:10092000D0731074704770B50220FFF78CFC112152
:10093000092002F08EF9FFF7BCFC00281DD03E4CC8
:100940002078162819D06078012816D060780328FE
:100950000ED3207825465435687012210320FFF706
:10096000CCFFFFF740FF687820700220FFF76BFC98
:100970002078002804D0207856E6FFF785FC53E65F
:10098000102051E62C484178122905D041781029D1
:1009900001D91021417070470321FBE7F8B52B4BBB
:1009A0000024254F1C70FE7C0D46083EB5405D704E
:1009B0005C8025462A2A00D080251D71FD795D7155
:1009C0000A259D71DA711C72C2785A7282789A7205
:1009D0004278DA72007818735C739C73D9731C7454
:1009E0001BA1042002F022F9184A1221482002F02B
:1009F000F3F81F210B2002F02CF9B97C0D2002F036
:100A000028F9B9790E2002F024F97C71FFF772FC05
:100A1000F8BDF8B5084E084C3C363068A16B8842EA
:100A20007DD0002020728027034828220121383001
:100A3000FFF7B4FF20780FE0F80400200201000067
:100A40000000000021FF00000000000010720020E4
:100A50005553424300000000002870D1CC210620ED
:100A600002F0F7F8617C0D2002F0F3F8A1790E2076
:100A700002F0EFF801206071A07940214840A07198
:100A8000606B3060E17C04200839FA4D8840687062
:100A9000FFF730FC2078002804D0C021062002F0A7
:100AA000D8F82DE0A1797940A1716878012802D0A9
:100AB0000E2002F0CEF8A279C0203168120600D4D0
:100AC000802002F065F830606878401E0006000E55
:100AD0006870DDD1C021062002F0BBF8A1790E209C
:100AE00002F0B7F8A06B3060A0793D467840A07165
:100AF000FFF700FC2078002812D0A0796840A07190
:100B000020782E281BD1207A2546002817D1687C12
:100B1000FFF706FE01202072FFF758FEE2E729E00A
:100B20000B2002F04BF80D2809D1CC2002F046F83A
:100B3000002815D0CC2002F041F8012804D02078FC
:100B400016280CD0FFF712FE207A052809D20328B8
:100B500001D3FFF7E8FE207A401C207264E7822070
:100B6000F8BDFFF762FC1F202070FFF70BFFFFF7B7
:100B7000DAFEF8BD0020F8BDF8B5BE4E0020543EA8
:100B8000354630723C35BB482A2201211C38FFF71C
:100B900005FF3078002876D1C821062002F059F8E8
:100BA000716B29604027B2793846520600D4802004
:100BB00002F027F8286040210B2002F04AF8B179B2
:100BC0000E207940B17102F044F8F17C042008391C
:100BD000A84C88406070C0B2012808D0B27929685A
:100BE0003846520600D4802002F00BF82860FFF748
:100BF00081FB3078002810D0C021062002F029F8AF
:100C0000307834462E284ED1207A00284BD1A07C53
:100C1000FFF786FD0120207212E0B1797940B171B1
:100C20006078012802D00E2002F013F86078401E90
:100C30000006000E6070CED1C021062002F009F837
:100C400080270124717C0D2002F003F8B1790E2079
:100C500001F0FFFF7471B06B2860B0797840B0711B
:100C6000FFF748FB307800280ED0B0797840B0719B
:100C700030782E2817D1307A002814D1707CFFF7F5
:100C80004FFD3472DEE70EE00B2001F097FF0D28D8
:100C900009D1CC2001F092FF002814D0CC2001F023
:100CA0008DFF012804D03078162810D0FFF75EFDA4
:100CB000307A05280DD2032801D3FFF734FE307AAD
:100CC000401C30725FE712F09BF80020F8BD8220D4
:100CD000F8BDFFF7AAFB1F203070FFF753FEFFF7A8
:100CE00022FEF8BDF8B50F20624C0A25624E6070F6
:100CF000002708212520FFF700FEB571F772FFF7E6
:100D000072FD2070002816D0162812D0152810D099
:100D100013280ED001F0B5F861784020090700D4FF
:100D2000C820FFF790FA6078401E0006000E607041
:100D3000DFD12078F8BD4F495439486B80790428B9
:100D40000BD008280BD010280BD00920C874CA7CFF
:100D500001209040C8820020F8BDCD74F7E70B2039
:100D6000F4E70C20F2E7F8B5424C543C60780228D6
:100D700001D90220607000273E4DFFF7D5FB002807
:100D800076D1A07A002879D1072001F017FF010958
:100D900068700901072001F05CFF607AC02100281B
:100DA00000D18021062001F054FF00210E2001F027
:100DB00050FF0120FFF747FA607A002827D0022869
:100DC00016D003281BD0022001F0F8FE010909010A
:100DD000891C022001F03DFF0120FFF734FAFFF7E4
:100DE00068FA002816D0FFF764FA002812D014E041
:100DF000032001F0E3FE01090901891C05E003203D
:100E000001F0DCFE0107090F20310320E2E7812118
:100E10000620DFE71420FFF716FA607A002805D0D5
:100E2000FFF75EFC0120FFF70EFA03E080210620A9
:100E300001F00FFFC021062001F00BFF8020A870F9
:100E4000FFF74EFC0220FFF7FEF91F21092001F0F9
:100E500000FF6978072001F0FCFEFFF765FB002822
:100E600036D0A878401E0006000EA870E8D1822077
:100E7000F8BD03E04C050020107200200A20FFF7A7
:100E8000E2F9607A801CC1B2082001F0E2FE00F0B5
:100E9000DAFF0321412001F0DCFE0421422001F0B1
:100EA000D8FEFFF7CBFA2078002808D000F0CBFF5F
:100EB0000121422001F0CDFEFFF7C0FAA9E000F0C9
:100EC000D0FF2078002803D1606B0078C006F6D4EC
:100ED0004B20FFF7B8F90021082001F0BAFEFFA16E
:100EE000082001F0A3FEFFF7A9FA20780028DDD141
:100EF000FCA1082001F09AFE607A002804D0801C32
:100F0000C1B2422001F0A5FEA07A002806D0E07A06
:100F10004106490E1031422001F09BFEFFF78EFA88
:100F200020780028C2D1422001F048FE0146082066
:100F300001F08FFE0A20FFF786F9ECA1082001F0EE
:100F400075FEFFF77BFA2078002862D1606B81780C
:100F5000462001F07EFE0021472001F07AFEFFF7D7
:100F60006DFA2078002854D1636B58796870987BAB
:100F7000082802D009282CD053E0D87B06282079F5
:100F80000DD0DF2108402071D87A1E462074193612
:100F9000AF701233AA783146002A04D102E0202132
:100FA0000843F0E719468878E8700979402938D174
:100FB000010604D50007000F9030607403E00007BD
:100FC000000F1030A074521CD0B2A8700228E1D1DA
:100FD00011E0A07A002824D1C6A1082001F026FE45
:100FE000FFF72CFA2078002813D1E772606B807825
:100FF000A072002815D0C1A1082001F017FE2E46CE
:101000006978422001F025FEFFF718FA20780028C1
:1010100020D0E07A002834D0000632D420786870DE
:1010200010E01F202070F4E7401CE072A870FFF76A
:101030007BFAE870002800D120E7822800D117E76A
:10104000A878E072E07AA17A8842EDD368782070BF
:10105000E77216E0A07A002802D0E07A002812D0C9
:101060000820A071A7A101F0E1FD217C442001F03E
:10107000F0FDFFF7E3F9207800281CD020782E2817
:101080001DD02078F4E6C0B2401CE07200F0DBFE18
:101090000321412001F0DDFD0821422001F0D9FDAE
:1010A000FFF7CCF9E07AA17A8842ECD3E772C82046
:1010B000FFF7C9F861E6606B0078687003E0002014
:1010C000FFF72EFB6F700220FFF7BDF8E7710125D7
:1010D00024211220FFF711FCFFF785FBF070002898
:1010E000707807D0002815D0E079032812D2401C70
:1010F000E071EDE7002806D0E079002803D1606BAD
:101100000078052804D003210220FFF794FAAFE607
:10111000E571DDE7FFF707FCAAE6F8B57B4C6078E0
:10112000032805D2FFF71FFE002862D1FFF7DAFD82
:10113000FFF77BF9206C754D754A0109002658357B
:10114000914203D10007000F287000E02E706F4C11
:10115000E670E6732662A663FFF75BFC002807D003
:10116000FFF704FBFFF7BEFDFFF753FC002840D15B
:101170002878002805D1606BFD2100780840E92817
:1011800002D0E078A07045E0A06B26E0616B081803
:10119000FF30C730FFF74CF8A063A178606B5B4A63
:1011A0004018FF30C130807854321070052821D0AB
:1011B0000F281FD0030602D58006800E107000068F
:1011C000000E25D00F2823D2287801281ED84F489A
:1011D000A16B3C3000684018A0632064FFF719FC45
:1011E000002806D1606BFD2102780A40E92A1FD051
:1011F000A1203DE6216AA06B4018A063E17B002995
:10120000AAD1A2781032E2732062A5E7401E2870AE
:101210001031A170A0784028B8D1E07B2146002889
:1012200002D0CA78002A01D0922021E6E07091E72E
:10123000417BE170A17007212173A1780A0609D4CE
:101240004900A170217B491E0906090E2173F4D1C2
:101250000121E170C18A618300290BD1416A012219
:1012600012042165914204D32A78002A01D0A220D9
:10127000FEE56183C17C027D114303D0133000F091
:10128000DBFD00E0006AE061606B113000F0D4FD2E
:10129000E18A4909491EC9B24218E07C401FC24098
:1012A000A262606BC189A182678BCB199A182265F3
:1012B000037C9C46022B31D06683236DE269D21AEF
:1012C000237BDA40134BA2649A423BD2124B92B278
:1012D00026839A4225D2012224E0000080060001E4
:1012E000000012000005020000000000800600025D
:1012F00000000400A0060029000009000009000009
:1013000000000000A1FE000000000100F804002021
:1013100067452301F5FF0000F50F0000D219226593
:10132000CBE70222A270002915D0A16A002912D0B1
:101330006146012902D0618B00290CD0C17A0029B5
:1013400009D105E0028E2283C26AA2620322E9E784
:10135000007B022807D22978002901D0A32087E545
:1013600001212970F3E6FE48828A016C521842641A
:10137000026D5118C16210210320FFF75CF977E577
:1013800070B5F74DF64C3C352868A063FFF7F4FBC9
:10139000002810D1608B00280BD0A16B0818A06327
:1013A000FFF7EAFB002806D1618BA06B401AA0630F
:1013B00028600020607370BDF8B5E94D0C46A9782F
:1013C000006802290BD003290BD080B2694608803F
:1013D00029460979C20706D01022114305E04000D2
:1013E00006E0800004E0EF22114029714108401816
:1013F0000090E98A6A6B491E89B201408918A96583
:10140000E97CC840696C4618D54800963C300068B5
:1014100086420BD0687B002803D0FFF7B1FF00287D
:1014200072D1AE63FFF7F5FA00286DD10127002CC9
:1014300006D0FF2C2FD0012C30D0286D00906F7378
:10144000C74EA87854362A46022829D0032837D018
:101450006846407805072D0F68464570C048C28A27
:10146000416B806D8918491E81424ED001783170E0
:10147000BB4B42787270002C7CD01A79D2063AD5D8
:101480000A0769460978120F0B011A43027009090D
:101490002A01114336E00020C043CFE70020CDE70A
:1014A000906D0023018831807380AE4B994200D249
:1014B00000276F71002C75D069460988018071E0A2
:1014C000906D6D4601683160E9780B07F1781B0F6C
:1014D0000D092D012B436D46EB700907090FF170C3
:1014E000A14B3168994200D200275771002C59D086
:1014F0000099016056E06946097801707178090920
:1015000009012943417035E04DE003783370002C28
:101510000AD0934A694612790978D20603D51A0788
:10152000120F0901114301708D48407B204303D005
:10153000FFF726FF002836D1894889493C300068EA
:10154000401C8863FFF765FA00282CD1844A002CE0
:10155000516B087870700DD01379DB0605D568469D
:10156000007800092B01184302E00009000128431C
:10157000087057737A490879C00607D53078020990
:10158000707803011A433270000902E07078000796
:10159000000F7070002070803088744A904200D232
:1015A00000274F71002063E4F8B56E4F6C4C08378C
:1015B000FF2625465435A16C206D884201D9B12003
:1015C00056E4401C2065664800215030FFF7F4FEC9
:1015D0000028F5D1286800284FD0206DA26C014664
:1015E000304332439042E6D0A0780128E3D0626BCA
:1015F000A2650228E08A0BD08008401E82B22A80B1
:101600006A80A06D001DA0650388002B17D01CE028
:101610004008401E82B22A806A80A06D801CA065AE
:101620000088002808D02888401E0004000C28806C
:10163000F3D10A432265BEE7A06D078012E08378EC
:10164000002B02D1C3781B0706D02888401E000457
:10165000000C2880D5D1ECE707808670C1780F2276
:101660001143C1706888216D08432988401A401CC5
:10167000206501206073002004E53948FF215030C7
:10168000FFF79AFEFEE410B5FFF78EFFB12804D1F4
:10169000334900200865FFF787FF10BD10B5304CB7
:1016A000208B002810D0216C4018A063FFF7B1F9FF
:1016B000002809D1606B226DFF30C130816A891822
:1016C00021658162FFF758FA10BDF8B5244C6078A7
:1016D000102803D2FFF721FD00287ED110210846F3
:1016E000FEF7A9FF002878D12149A07308780028C7
:1016F00073D05C2805D02F2803D04A783A2A03D02B
:1017000038E01B48401C03E0432833D31848C01C72
:10171000E0640022A0781146032800D1A16AE161AB
:10172000E16C0978002926D1491E2162032810D0D6
:101730000220E061A06AE36AC1B2591AE162E17C69
:1017400080B2884006492062E0782831C870A06ADB
:10175000E070E06962622065E273122060708CE0E4
:10176000F8040020F7FF0000F7FFFF0FF70F00005D
:10177000F0710020E164FF4FFE4C543CE06900280A
:1017800007D0E178E173217B801E8840E16A401830
:1017900004E0A06AC0B2E073E16A081A2063A3E023
:1017A000206BA063FFF735F9002816D190E0616B3C
:1017B0000A18A2651378002B73D0E52B72D0052B85
:1017C00000D1E523E16C0D789D4201D02A2D7DD119
:1017D00001209D4200D0002000E04FE0F87026E09C
:1017E000FD78165C4B5D9E421DD0002B06D05C2B15
:1017F00004D02F2B02D02E2B09D00CE0F3B2202BDB
:1018000009D1082809D2107A202806D04FE0082DE7
:1018100008D0202E06D00B2849D3D07A000746D412
:1018200000209FE00720401C6D1CC0B2FD700B28FB
:10183000D6D3F2E7CF4B828A383B5A80FA78E36CF2
:101840009B5C002B02D06379002B2CD0C94C00226A
:10185000543CE16962622165E273A36DDB7ADB06C9
:101860000DD5501E206213211020FEF7E4FE002843
:1018700004D161794320002900D1412047E4C069A7
:101880002062002902D1FF20E0732262142110207F
:10189000FEF7D1FE0028F1D160790028EED0432078
:1018A00035E433E012E0491C5018E06464E7FB784B
:1018B000C85C2A280AD1D07A000707D44A1C985C51
:1018C000002826D0FF2856D0401E9854A08A2030E9
:1018D000A082E18A80B2884200D268E7206B401C77
:1018E0002063E07B401EE073E07B002800D057E7D8
:1018F000E0692546002809D09E4800213838FFF7C6
:101900005BFD0028BAD16879002842D00021E26C42
:1019100048E000207870A26D125C202A19D00828B7
:1019200006D17B78E56C2E22EA547A78521C7A70C4
:10193000A26D7B78E56C125CEA547A783E46002A08
:1019400004D10A78052A01D1E5220A707278521C66
:101950007A70401CC0B20B28DDD37A78E36C00208B
:10196000985401206071A06D428BE261A278032A35
:1019700000D063E75EE7206A0028CAD07D4834388B
:10198000C078000601D511F042FA206A401E20629C
:101990009CE73868E861EFE65C280AD02F2808D079
:1019A000491CC9B2505C002801D02A28F4D1422039
:1019B0001FE4B3201DE410B56E4C0020543CA0730E
:1019C0006078142810D3206BA063FFF722F800285A
:1019D00009D1A18A606B4018C17AC90604D4216A72
:1019E000C161FFF7C9F810BD002010BD614810B5F6
:1019F00054384178122901D2B42010BD4178002218
:101A000012290CD18178032909D05A492C39CB7875
:101A1000C370CA70816AC36AC9B2C918C162417809
:101A2000132912D94178142903D15349097800297F
:101A30000BD0807B002803D0FFF7BDFF0028DCD14E
:101A400010210846FEF7F7FD10BD8273F8E710B5C8
:101A5000484C543C6078132803D2FFF736FE002828
:101A60002FD110210846FEF7E6FD002829D1206B72
:101A7000A063FEF7CEFF002823D1A18A606B401837
:101A8000E5210170FFF778F800281AD13949E0699B
:101A90000860002815D0401EE0610020206501216B
:101AA0003448FFF789FC00280BD1206D401C2065CD
:101AB00060790028F3D0FFF763FC002801D1FFF71D
:101AC000EDFD10BD2B485438016D027B891E9140FD
:101AD000C26A8918C27B891881637047F8B5FFF71D
:101AE000F4FD244C0025543CE07300280CD042281F
:101AF0007BD1A08AE18A884278D3E169002953D05A
:101B00000006000E03D071E0FFF7A1FF49E019487D
:101B100000213838FFF750FC002866D16079002892
:101B200064D0E06926462065FFF7ADFD00285CD152
:101B3000104802213838FFF73FFC002855D1FFF745
:101B40001FFC002851D1FEF770FC0020716B02E0F1
:101B50000D54401C80B2F28A9042F9D1F573FFF720
:101B6000B1FFB08A0006000E02D1B582B06B3063BF
:101B7000F07803E04C050020F0710020C94F08E028
:101B8000FEF7FAFF002830D1B06B401CB063387804
:101B9000401E38700006000EF2D1401E3065FFF77F
:101BA0007DFD002821D121E00006000E1ED1A06A93
:101BB000E073206B401E2063A063FEF72AFF00281D
:101BC00013D1A582E38A626B05E011180978E52933
:101BD0000CD02030A082A08A9842F6D3E07B401E31
:101BE0000006000EE073E4D1B220DCE4E069206579
:101BF000FFF749FD0028F8D1FFF7C2FB0028F4D118
:101C0000062000F0DBFFAF210840802801D0112022
:101C1000C9E4206DE0610020C0432065FFF73EFD70
:101C20000028E2D1206BA063FEF7F3FE0028DCD190
:101C3000A18A606B4118002020231A460B2800D38C
:101C400000220A54401CC0B22028F6D396480883CC
:101C5000012008770020E26C1378002B0DD02E2B8A
:101C600002D10820521CE26412780A54E26C401C33
:101C7000521CC0B2E2640B28EDD3E0694883894866
:101C8000383840888882FEF777FF0028ADD1E069B8
:101C9000256265622065E57314211020FEF7CBFCF8
:101CA00081E4F8B57F4C543C6078132801D2B4200D
:101CB00079E4206BA063FEF7ACFE0028F8D1002287
:101CC0006273A18A606B794E4018337AC17A31729F
:101CD0000121FF2B01D0C3726173724FF3887B80A7
:101CE000C58AF580724DAB4201D0C3826173B3885F
:101CF0007B80058BB5806E4DAB4201D00383617351
:101D00003368F360C5693560F57BFF2D04D023622D
:101D1000C3616173A27302E0607B0028C8D0627364
:101D2000FEF72AFF3FE410B5FEF7FEFB002815D1B1
:101D30005C4854384078032811D2FFF714F8002883
:101D400006D04020FEF77FFAFFF70DF8002805D1F6
:101D5000FEF7C8FF002802D0FEF7E5FD10BD002108
:101D60000846FEF7CAFDFEF73EFD4E4C00282070E7
:101D7000F4D000F086F8207810BD70B5494C4B4D7A
:101D8000543CE269002A1BD0E17C6868C840E17BD2
:101D9000401A68602968814202D3081A286000E06E
:101DA0002265404E2868E178884215D33D480021DD
:101DB000001FFFF701FB002814D16079002804D030
:101DC000FF20E0730020C0430AE030682065E1781E
:101DD0002868401A2860E6E7E073FFF773FEA06BFF
:101DE0002860002070BD10B5FFF7DEFB2D4C543C81
:101DF000002807D0B1281ED100202065FFF7D4FBB2
:101E0000002818D1FFF7BCFA002814D1206DE0613A
:101E1000206BA063FEF7FDFD00280CD1A18A606B4A
:101E2000401801210177E16941831E493839498809
:101E30008182FEF7A1FE10BD1A4902780A7040782F
:101E400048700888704710B51AA1082000F0EEFE0F
:101E500014485438C07A4106490E442000F0F9FE77
:101E600010BD10B515A1082000F0E0FE0D48543853
:101E7000C07A4106490E442000F0EBFEFEF7DEFA80
:101E800010BD10B50A20FEF7DEF912210320FEF77F
:101E900034FDFEF7A8FC0220FEF7D5F901485438BE
:101EA000007810BD4C05002021300000F0710020AA
:101EB000FFFF00002301100001000000A30000004C
:101EC00001000400D2B201E000F8012B491EFBD250
:101ED00070470022F6E710B513460A460446194635
:101EE000FFF7F0FF204610BD10B5044604E00B7864
:101EF00000F8013B03B1491C521EF8D2204610BD28
:101F0000421C10F8011B0029FBD1801A704780EA9F
:101F1000010210B502F00043400022D04A001FD059
:101F2000010E01EB1261C0F35600C2F3560240F4F9
:101F3000000042F40002A0FB022000047F391404D8
:101F400000D0401C50EA124001D44000491EC2B2E9
:101F50000C0604EBD010401C4008802A02D003E09D
:101F6000002010BD20F00100002900DA00201843F5
:101F700010BD2DE9FE4F804681EA0300C00F0C46DC
:101F8000009021F0004123F00045B8EB0200A94188
:101F900005D24046214690461C460B46024623F099
:101FA0000040104347D0270DC7F30A00C3F30A517E
:101FB0000290401A019040286BDAC3F3130040F4FA
:101FC000801B0098924620B10023D2EB030A63EBFA
:101FD0000B0B01985946C0F14002504600F041FAFF
:101FE00006460D4650465946019A00F059FA10EB44
:101FF00008006141002487EA115284EAE7731A431A
:1020000040D0009A62B3019A012A4FEA075215DCC8
:10201000001B61EB02014FF0004202EA0752CDE9DA
:102020000042001C41F5801132462B4600F090FA28
:1020300003B0BDE8F08F40462146F9E7001B61EB95
:102040000201001C41F5801300185B412018A2F525
:10205000001747EB030140EAD570B6196D4111E056
:102060006D084FEA360645EAC0754FEA0752001B75
:1020700061EB0201001C41F5801149084FEA300074
:102080000019514132462B4603B0BDE8F04F00F035
:1020900050BA0098012240000023D0EB020263EB0B
:1020A000E073009821464FEAE074B8EB000061EB62
:1020B0000401E9E783F000435BE781F0004158E762
:1020C0002DE9FE4F81EA030404F0004421F00041B1
:1020D00000944FF0000B23F0004350EA01045ED05F
:1020E00052EA03045BD0C3F30A54C1F30A552C44EB
:1020F000A4F2F3340194A0FB0254C1F3130141F4A0
:102100008011C3F3130343F4801301FB024400FB6B
:10211000034E840A970A44EA815447EA8357A4FB92
:10212000076802958D0A05FB07854FEA932C04FB8F
:102130000C542705029D4FEA065847EA1637B5EBBF
:1021400008056EEB070C870E920E47EA811742EAEC
:102150008312A7FB0201B6EB0B0164EB00042B0D0D
:1021600043EA0C335E1844EB1C50DA465146E7FB59
:102170000201C5F313044FEA0B3343EA14534FEA49
:102180000432019C43EA0603A4F10C040294009C6F
:10219000CDE900B400F0DCF903B0BDE8F08F002019
:1021A0000146F9E72DE9F04D81EA030404F0004B04
:1021B00021F0004514464FF0000A23F0004150EA98
:1021C000050220D054EA01021DD0C5F30A57024689
:1021D000C5F31303C1F31300C1F30A5640F480158D
:1021E00043F48013A7EB0608101BD64608F2FD380F
:1021F00073EB050002D308F1010801E092185B417E
:10220000B8F1000F03DA00200146BDE8F08D002090
:102210004FF48011064684460EE0171B73EB05074A
:1022200005D3121B63EB050306434CEA010C490876
:102230004FEA300092185B4150EA0107EDD152EAB3
:10224000030012D082EA040083EA0501084305D0A6
:10225000101BAB4106D20122002306E000224FF002
:10226000004302E06FF0010253101AEB06004CEB42
:10227000085110EB0A0041EB0B01BDE8F04D00F0F6
:1022800058B996230022114600F025B90EB540F248
:10229000334102910021CDE900110A460B4600F0BE
:1022A00057F903B000BD20F00040C10DC0F3160087
:1022B00040F400007F2901DA00207047962903DCF2
:1022C000C1F19601C8407047963988407047C1F304
:1022D0000A5210B5C1F3130140F2FF3341F48011EB
:1022E0009A4201DA002010BD40F233439A42A2F232
:1022F000334203DC524200F0C3F810BD904010BDE1
:1023000000F0004230F000400AD0C10D01F56071CC
:10231000C0F3160042EA0151C2084007114370475A
:10232000002001467047000030B5041E71F1000422
:1023300004DB4FF00044404264EB0101141E73F1D2
:10234000000405DB1C464FF00043524263EB0403DC
:102350008B4208BF824230BD30B5041E71F10004CB
:1023600004DB4FF00044404264EB0101141E73F1A2
:10237000000405DB1C464FF00043524263EB0403AC
:10238000994208BF904230BD01F0004330B421F0C3
:10239000004150EA010206D00A0DA2F56072C1F3B5
:1023A0001301002A02DC30BC00207047440F44EACD
:1023B000C104C100E01830BC00EBC25000F082B88C
:1023C000002801DBC0F10040002901DBC1F1004120
:1023D0008142704730B50B4601460020202201247F
:1023E00009E021FA02F59D4205D303FA02F5491BE3
:1023F00004FA02F52844151EA2F10102F1DC30BDF9
:102400002DE9F05F0546002092469B468846064629
:10241000814640241BE0284641464746224600F0BC
:102420002FF853465A46C01A914110D31146184608
:10243000224600F016F82D1A67EB01084F46224697
:102440000120002100F00DF817EB00094E41201E7D
:10245000A4F10104DFDC484631462A464346BDE884
:10246000F09F202A04DB203A00FA02F10020704796
:102470009140C2F1200320FA03F3194390407047C2
:10248000202A04DB203A21FA02F00021704721FAC9
:1024900002F3D040C2F12002914008431946704730
:1024A000202A06DBCB17203A41FA02F043EAE07318
:1024B00006E041FA02F3D040C2F120029140084305
:1024C000194670470029A8BF7047401C490008BF43
:1024D00020F00100704710B4B0FA80FC00FA0CF054
:1024E00050EA010404BF10BC704749B1CCF120048C
:1024F00021FA04F411FA0CF118BF01212143084319
:10250000A3EB0C01CB1D4FEA00614FEA102042BF44
:10251000002010BC704700EBC35010440029A4BF3A
:1025200010BC7047401C490008BF20F0010010BCDF
:10253000704710B5141E73F1000408DA401C41F115
:10254000000192185B411A4301D120F0010010BD37
:102550002DE9F04D92469B4611B1B1FA81F202E0AD
:10256000B0FA80F220329046FFF77BFF04460F4618
:1025700040EA0A0041EA0B0153465A46084313D089
:10258000114653EA010019D0C8F140025046FFF746
:1025900077FF05460E46504659464246FFF761FF13
:1025A000084305D0012004E020463946BDE8F08DFF
:1025B0000020054346EAE0762C4337430A9863053A
:1025C000E40AA0EB08000022FD0A44EA47540A305E
:1025D00002D500200146E9E7010510196941DDE94E
:1025E000084500196941BDE8F04DA2E7C1F30A5260
:1025F000C1F3130140F2FF3341F480119A4202DA31
:1026000000200146704740F233439A42A2F233421F
:1026100002DC5242FFF734BFFFF723BF064C074DE1
:1026200006E0E06840F0010394E8070098471034A2
:10263000AC42F6D3FDF780FD7C2F01089C2F0108EA
:1026400070B58C1810F8015B15F0070301D110F874
:10265000013B2A1106D110F8012B03E010F8016BA1
:1026600001F8016B5B1EF9D12B0705D40023521E24
:102670000DD401F8013BFAE710F8013BCB1A921C8C
:1026800003E013F8015B01F8015B521EF9D5A1428A
:10269000D8D3002070BD000070B588B0002400259C
:1026A0000020049005900690079000900190029001
:1026B00003900A214A4801F069FE00BF0EE0484835
:1026C00030F814202946681C85B2464820F81120AD
:1026D00045480078A84200D102E000BF0A2CEEDB9A
:1026E00000BF002501240FE03D4830F814202846A3
:1026F000691C8DB23B49C83121F810203A48407816
:10270000A84200D102E000BF0A2CEDDB00BF00258B
:1027100002240EE0324830F814202846691C8DB29D
:10272000324921F8102030488078A84200D102E0D8
:1027300000BF0A2CEEDB00BF2B48017829480FF0C0
:10274000F7FCADF81000284841782648C8300FF053
:10275000EFFCADF812002448817824480FF0E8FC23
:10276000ADF81400BDF8101000200FF0A7FC0646CD
:10277000FFF799FD80B2ADF80000BDF812100120FE
:102780000FF09CFC0646FFF78EFD80B2ADF802000C
:10279000BDF8141002200FF091FC0646FFF783FDF0
:1027A00080B2ADF80400BDF80400FFF76AFD0646EC
:1027B0000FF0CEFD0E490860BDF80000FFF761FD87
:1027C00006460FF0A7FD0B490860BDF80200FFF7B1
:1027D00058FD06460FF0A2FD0749086008B070BD1D
:1027E0009C880020B0880020712E0108408A0020BB
:1027F000480400204C0400205004002008B510209C
:10280000ADF800008DF8030003208DF80200694642
:102810001A4801F0D9FC0121194801F061FD082096
:10282000ADF8000028208DF803006946134801F038
:10283000CBFC4FF48050ADF8000010208DF8030061
:1028400003208DF8020069460E4801F0BDFC02200D
:10285000ADF8000010208DF8030003208DF8020071
:102860006946094801F0B0FC1021044801F08BFDD5
:102870000221054801F087FD08BD0000000C014061
:1028800000023000001001400008014070B504460D
:10289000FFF7B4FF0DF0C0FF20460EF03EFA2046D1
:1028A0000EF03BFAE043C1B2022000F0B3F8012081
:1028B00000F030F8054629460CA00EF099FF0BE019
:1028C0001021134801F05DFD20460EF026FAE0438A
:1028D000C1B2022000F09EF8012000F01BF8A042D7
:1028E000EED110210A4801F04EFD70BD414453382D
:1028F0003638385F52656164526567284155544FD8
:102900005F5345515F454E29203D25640D0A000067
:102910000010014070B5044600251021094801F05F
:1029200030FD6106080E00F02FF800F00DF80546A6
:1029300000F00AF805461021024801F024FD28465F
:1029400070BD0000000C014070B50025002400BFE0
:1029500012E06006040E0221094801F014FD08216E
:10296000084801F005FD08B1601CC4B2022104480A
:1029700001F007FD681CC5B2082DEADB204670BDDA
:1029800000080140000C014070B5044600251021EC
:10299000104801F0F6FC00BF19E004F0800028B1F7
:1029A0004FF480510C4801F0EEFC04E04FF48051EC
:1029B000094801F0E6FC6006040E0221074801F018
:1029C000E2FC0221054801F0DCFC681CC5B2082DC0
:1029D000E3DB70BD000C0140001001400008014025
:1029E00010B5044610210A4801F0CBFC200AFFF77D
:1029F000CBFFE0B2FFF7C8FF0020FFF7C5FF0020C4
:102A0000FFF7C2FF1021024801F0BDFC10BD00001D
:102A1000000C014070B504460D461021084801F035
:102A2000B0FC012101EB4401C8B2FFF7ADFF28461D
:102A3000FFF7AAFF1021024801F0A5FC70BD0000BD
:102A4000000C014010B54FF42040FFF7C9FF10BD46
:102A500010B501200DF07EF900200DF07BF910BDBE
:102A600008B50146002000900348009000980844F3
:102A700000900098008808BD006C004008B5002256
:102A80000092044A0092009A02440092009A116057
:102A900008BD0000006C004008B5012120200DF0A9
:102AA00049F90420ADF8000010208DF80300032040
:102AB0008DF8020069460F4801F086FB01210420D1
:102AC0000DF038F94FF40040ADF8000010208DF8FB
:102AD000030003208DF802006946074801F074FBEB
:102AE0004FF40041044801F04CFC0421014801F07E
:102AF00048FC08BD001401400008014000BFFEE78B
:102B000010B5FDF793FB192801DAFF2010BD03482B
:102B100003490860FDF7A2FDF8E7000028720020D5
:102B20002C05002010B50DF0D3FE5A21082000F02E
:102B300090F8082000F042F85A2803D003A00EF0C5
:102B400057FE02E004A00EF053FE10BD436F6D6D02
:102B5000204572726F0A0000436F6D6D204F4B0A63
:102B60000000000070B506460D461446C0213046F0
:102B70000EF00EF904E0FF200DF006FF04F8010B43
:102B8000281EA5F10101CDB2F5D10EF013F970BDEB
:102B900070B506460C46C02130460EF0F9F84025C7
:102BA00006E0FF200DF0F0FE04F8010B681EC5B230
:102BB000002DF6D10EF0FEF8204670BD70B504462B
:102BC000C02120460EF0E4F8FF200DF0DDFE0546A2
:102BD0000EF0F0F8284670BD70B506460D46144656
:102BE000802130460EF0D4F803E014F8010B0DF00C
:102BF000CBFE281EA5F10101CDB2F6D10EF0DAF818
:102C000070BD70B506460C46802130460EF0C0F807
:102C1000402505E014F8010B0DF0B6FE681EC5B2A4
:102C2000002DF7D10EF0C6F8204670BD70B50546F0
:102C30000C46802140200EF0ABF800BF20780DF04C
:102C4000A3FE641C681EC0B2051EF7D10EF0B2F8D8
:102C500070BD70B505460C46802128460EF098F8E8
:102C600020460DF091FE0EF0A5F870BD08B54FF4AA
:102C7000E070ADF8000010208DF8030003208DF8FF
:102C8000020069460A4801F09FFA4FF40070ADF85F
:102C9000000028208DF803006946054801F094FAE9
:102CA0004021034801F06FFB00F0C6F808BD0000AA
:102CB000000C01402DE9F047074689460024002515
:102CC000A046002647F0800700BF4946384600F07E
:102CD00061F840212E4801F056FB80212C4801F07C
:102CE00052FB40212A4801F04CFB00BF18E0802134
:102CF000274801F048FB05F0800028B14FF48071AF
:102D0000234801F040FB04E04FF48071204801F0BB
:102D100038FB6806050E80211D4801F032FB641C5B
:102D2000082CE4DB002425E08021194801F02BFB6E
:102D300008F4004028B14FF48071154801F023FBDE
:102D400004E04FF48071124801F01BFB4FF6FF7056
:102D500000EA480800EA46064FF400710C4801F00A
:102D600007FB012801D146F001068021084801F047
:102D700008FB641C102CD7DB4021054801F003FB45
:102D80008021034801F0FFFA3046BDE8F0870000DB
:102D9000000C014070B505460E464021254801F063
:102DA000F0FA8021234801F0EEFA002419E0802196
:102DB000204801F0E8FA05F0800028B14FF4807156
:102DC0001C4801F0E0FA04E04FF48071194801F06A
:102DD000D8FA6806050E8021164801F0D2FA601C68
:102DE000C4B2082CE3DB002418E08021114801F074
:102DF000CAFA06F4004028B14FF480710D4801F082
:102E0000C2FA04E04FF480710A4801F0BAFA760081
:102E10008021084801F0B5FA601CC4B2102CE4DB34
:102E20004021044801F0AFFA8021024801F0ABFADA
:102E300070BD0000000C01402DE9F04F8FB0002064
:102E40000E900D900C900B900A90099008900790AE
:102E50000024069005908146002500260027049056
:102E6000804603908246834602900190009045F090
:102E7000100546F0040647F080070320049041F255
:102E8000090048EA00084AF4007A4BF0040B029863
:102E900040F400700290019840F0020001904FF45D
:102EA0007A700FF099F94FF47A700FF095F94FF4AA
:102EB0007A700FF091F92021314801F064FA51E065
:102EC0001021304801F05DFA29460220FFF762FF29
:102ED00031460620FFF75EFF07200499FFF75AFFEF
:102EE00000210720FFF7E6FE0B9039460320FFF78D
:102EF00051FF41460420FFF74DFF002464200FF0EE
:102F00006BF900210B20FFF7D5FE044664200FF07B
:102F100063F904F4007020B104F400711AA00EF0FB
:102F200067FC4FF0000904F40079B9F5007F14D074
:102F300064200FF051F918A00EF05AFC202110481F
:102F400001F021FA64200FF047F916A00EF050FCB2
:102F500020210B4801F015FA00E004E021460BA007
:102F60000EF046FCACE700BF1021064801F00BFA5A
:102F70002021034801F005FA0FB0BDE8F08F0000F2
:102F8000000C01400010014063676767706F776550
:102F9000723D25640D0A00004441435245414554A9
:102FA0000D0A000044414352454153544F4B0D0A12
:102FB0000000000008B52020ADF8000010208DF8BA
:102FC000030003208DF802006946044801F0FCF874
:102FD0002021024801F0D5F908BD0000000C014095
:102FE00000F0805111B10349086001E002494860D6
:102FF00070470000040402400000024021B1026852
:1030000042F00102026004E002684FF6FE731A40CB
:103010000260704700B58BB000200A90102002902B
:10302000802005900020049001903C4800900020F2
:1030300006900790089009900390394800F074F8C2
:103040006946374800F016F94FF40050FFF7C8FF03
:1030500000200A90029031480090002004908020C7
:1030600005900390002006900790202008904FF4D0
:10307000405009902A48143000F056F86946284814
:10308000143000F0F7F8012125481430FFF7B6FF9F
:1030900000200A90102002908020059000200490CB
:1030A0000190204800900020069007900890099019
:1030B00003901B483C3000F037F8694618483C3014
:1030C00000F0D8F84FF40050FFF78AFF4FF000707F
:1030D000FFF786FF2020FFF783FF00200A90029071
:1030E0001048009000200490802005900020069059
:1030F0000790202008904FF440500990084828304D
:1031000000F012F869460648283000F0B3F80121B3
:1031100003482830FFF772FF0BB000BD04380140B0
:10312000440002400444004001684FF6FE72114022
:1031300001600021016041608160C1604B498842AB
:1031400008D14A490839496841F00F01474A083A0D
:1031500051608AE045491431884208D14349083911
:10316000496841F0F001414A083A51607DE03F4929
:103170002831884208D13D490839496841F47061D5
:103180003A4A083A516070E038493C31884208D1E7
:1031900036490839496841F47041344A083A516067
:1031A00063E032495031884208D1304908394968D2
:1031B00041F470212D4A083A516056E02B496431A0
:1031C000884208D129490839496841F47001274AE1
:1031D000083A516049E025497831884208D12349AD
:1031E0000839496841F07061204A083A51603CE072
:1031F0001F49884206D1011F096841F00F01021FD3
:10320000116032E01A491431884208D11849091F67
:10321000096841F0F001164A121F116025E01449B7
:103220002831884208D11249091F096841F47061A8
:103230000F4A121F116018E00D493C31884208D135
:103240000B49091F096841F47041094A121F1160B6
:103250000BE007495031884207D10549091F096829
:1032600041F47021024A121F1160704708000240A9
:103270000804024010B50022026847F6F0739A4332
:103280000C6A8B6823430C6923434C6923438C6984
:103290002343CC6923434C6A23438C6A23431A4358
:1032A0000260CB6843600B6883604B68C36010BDED
:1032B0007047000010B5802000F0AAF8012850D116
:1032C0004A48806800F4007000284AD04848407896
:1032D00010B1012833D11EE04448806800F48070AA
:1032E00048B14448007800EB4000434901EB8000BE
:1032F000C078404908703D48806800F4807048B943
:103300003C48007800EB40003B4901EB800000792D
:103310003849087013E03548806800F4807020B1A7
:103320003349087807F080FB09E03048806800F4F2
:10333000807018B92E49087803F0A0F800BF00BFCC
:103340002C48007800EB40002B4901EB800080689E
:103350002A490860084600688047264800782849BE
:103360000870802000F054F8012833D11F4880688D
:1033700000F4007070BB1E484078012812D11B4831
:10338000806800F4807018B11949087809F0D8FCF9
:103390001648806800F4807018B91549087805F05F
:1033A00003FA00BF00BF1348007815490978884226
:1033B00010D01048007800EB40000F4901EB80006E
:1033C00080680E4908600846006880470948007810
:1033D0000B4908704FF4007000F014F8802000F0E2
:1033E00011F84FF4807000F00DF810BD001001408E
:1033F0002800002038000020400000203C00002071
:103400003C0400200149086070470000140401409A
:10341000014600200022074B1B6803EA0102054B0E
:1034200014331B680B4013B10AB1012000E00020E7
:103430007047000000040140002123498279002ADE
:103440003AD00A46126803689A430B461A600A1D6E
:10345000126803689A430B1D1A60027911440A68C6
:1034600003681A430A60184A0832126803689A43CC
:10347000154B08331A601A1D126803689A43124BE1
:103480000C331A604279102A0ED11A1F1268036891
:103490001A430D4B08331A601A1D126803681A4349
:1034A000094B0C331A600DE00749427911440A6850
:1034B00003681A430A6005E0027911440A68036848
:1034C0009A430A60704700000004014010B50420D0
:1034D0000DF021FB3222042108460DF02DFC074897
:1034E000407806498978884203D001200349487012
:1034F00088701E200149087010BD000028000020BF
:1035000010B504200DF007FB3222012104200DF03C
:1035100013FC0748407806498978884203D0012087
:103520000349487088701B200149087010BD0000D5
:103530002800002010B504200DF0EDFA32220321FE
:1035400004200DF0F9FB0748407806498978884245
:1035500003D001200349487088702E20014908706B
:1035600010BD00002800002010B504200DF0D3FA93
:103570003222022104200DF0DFFB07484078064983
:103580008978884203D001200349487088701D2043
:103590000149087010BD00002800002010B503206C
:1035A0000DF0B9FA3222052103200DF0C5FB0748C2
:1035B000407806498978884203D001200349487041
:1035C000887019200149087010BD000028000020F3
:1035D00010B503200DF09FFA3222042103200DF0D4
:1035E000ABFB0748407806498978884203D0012020
:1035F00003494870887018200149087010BD000008
:103600002800002010B503200DF085FA3222012198
:1036100003200DF091FB07484078064989788842DD
:1036200003D00120034948708870162001490870B2
:1036300010BD00002800002010B503200DF06BFA2B
:103640003222032108460DF077FB074840780649EF
:103650008978884203D00120034948708870292066
:103660000149087010BD00002800002010B503209B
:103670000DF051FA3222022103200DF05DFB0548C6
:10368000407804498978884203D001200149487074
:10369000887010BD2800002010B500200DF03BFA06
:1036A0003222082100200DF047FB074840780649E8
:1036B0008978884203D00120034948708870062029
:1036C0000149087010BD00002800002010B500203E
:1036D0000DF021FA3222052100200DF02DFB0748C4
:1036E000407806498978884203D001200349487010
:1036F000887003200149087010BD000028000020D8
:1037000010B500200DF007FA3222042100200DF040
:1037100013FB0748407806498978884203D0012086
:1037200003494870887002200149087010BD0000EC
:103730002800002010B500200DF0EDF93222012103
:1037400000200DF0F9FA0748407806498978884248
:1037500003D001200349487088700820014908708F
:1037600010BD00002800002010B500200DF0D3F996
:103770003222072100200DF0DFFA07484078064981
:103780008978884203D00120034948708870052059
:103790000149087010BD00002800002010B500206D
:1037A0000DF0B9F93222062100200DF0C5FA0748C4
:1037B000407806498978884203D00120034948703F
:1037C000887004200149087010BD00002800002006
:1037D00010B500200DF09FF93222032100200DF0DA
:1037E000ABFA0748407806498978884203D001201F
:1037F00003494870887001200149087010BD00001D
:103800002800002010B500200DF085F93222022199
:1038100000200DF091FA07484078064989788842DF
:1038200003D00120034948708870092001490870BD
:1038300010BD00002800002010B505200DF06BF928
:103840003222052108460DF077FA074840780649EC
:103850008978884203D00120034948708870252068
:103860000149087010BD00002800002010B5052097
:103870000DF051F93222042105200DF05DFA0748C0
:10388000407806498978884203D00120034948706E
:10389000887024200149087010BD00002800002015
:1038A00010B505200DF037F93222012105200DF069
:1038B00043FA0748407806498978884203D00120B6
:1038C00003494870887021200149087010BD00002C
:1038D0002800002010B505200DF01DF93222062128
:1038E00005200DF029FA0748407806498978884272
:1038F00003D00120034948708870262001490870D0
:1039000010BD00002800002010B505200DF003F9BF
:103910003222032105200DF00FFA074840780649AE
:103920008978884203D00120034948708870232099
:103930000149087010BD00002800002010B50520C6
:103940000DF0E9F83222022105200DF0F5F90748C3
:10395000407806498978884203D00120034948709D
:10396000887022200149087010BD00002800002046
:1039700010B502200DF0CFF83222042102200DF004
:10398000DBF90748407806498978884203D001204E
:1039900003494870887013200149087010BD000069
:1039A0002800002010B502200DF0B5F832220121C8
:1039B00002200DF0C1F9074840780649897888420D
:1039C00003D0012003494870887014200149087011
:1039D00010BD00002800002010B502200DF09BF85B
:1039E0003222032102200DF0A7F90748407806494A
:1039F0008978884203D001200349487088701120DB
:103A00000149087010BD00002800002010B50220F8
:103A10000DF081F83222022108460DF08DF9074899
:103A2000407806498978884203D0012003494870CC
:103A3000887010200149087010BD00002800002087
:103A400010B501200DF067F83222052101200DF09C
:103A500073F90748407806498978884203D00120E5
:103A60000349487088700F200149087010BD00009C
:103A70002800002010B501200DF04DF8322204215D
:103A800001200DF059F907484078064989788842A5
:103A900003D001200349487088700E200149087046
:103AA00010BD00002800002010B501200DF033F8F3
:103AB0003222012108460DF03FF9074840780649B7
:103AC0008978884203D001200349487088700B2010
:103AD0000149087010BD00002800002010B5012029
:103AE0000DF019F83222032101200DF025F90748C5
:103AF000407806498978884203D0012003494870FC
:103B000088700D200149087010BD000028000020B9
:103B100010B501200CF0FFFF3222022101200DF030
:103B20000BF90748407806498978884203D001207C
:103B30000349487088701F200149087010BD0000BB
:103B4000280000202DE9F04105460E4617460024C6
:103B500000BF48E004EB440105EBC100182206F564
:103B6000805100F025FF04EB440005EBC002214624
:103B70001FA00DF03DFE04EB440005EBC000214604
:103B8000C26822A00DF034FE04EB440005EBC00037
:103B9000427C214623A00DF02BFE04EB440005EBF4
:103BA000C000C27C214626A00DF022FE04EB44009A
:103BB00005EBC000027C214629A00DF019FE04EBA4
:103BC000440005EBC000827C21462CA00DF010FEC5
:103BD00004EB440005EBC000214642692EA00DF025
:103BE00007FE1836641CBC42B4DBBDE8F08100005F
:103BF00072646174615B25645D2E50726F647563DD
:103C000074547970653D25730D0A00007264617407
:103C1000615B25645D2E466163746F723D25640DA2
:103C20000A00000072646174615B25645D2E646942
:103C3000616D657465725F496D703D25640D0A00A4
:103C400072646174615B25645D2E6469616D657485
:103C500065725F4D65747269633D25640D0A0000ED
:103C600072646174615B25645D2E67617264655F77
:103C7000496D703D25640D0A000000007264617496
:103C8000615B25645D2E67617264655F4D6574726A
:103C900069633D25640D0A0072646174615B25648B
:103CA0005D2E53656E736F72546F723D25640D0AFD
:103CB000000000002DE9F04105460F46164600249D
:103CC00000BF14E005EBC4000822314600F070FE8E
:103CD00015F83420214608A00DF08AFD05EBC4003C
:103CE0002146426809A00DF083FD0836641CBC42E1
:103CF000E8DBBDE8F081000072646174615B2564FB
:103D00005D2E676561723D25640D0A007264617401
:103D1000615B25645D2E6765617250726573733DEA
:103D200025640D0A0000000070B504460D465C22B3
:103D30002946204600F03CFE217840A00DF058FDB9
:103D4000207820B12078012801D0002020706178EF
:103D500040A00DF04DFD607820B16078012801D0C1
:103D600000206070217941A00DF042FD207938B12A
:103D70002079012804D02079022801D00020207168
:103D8000E17840A00DF034FD617944A00DF030FDE4
:103D9000607920B16079012801D000206071A1789C
:103DA00044A00DF025FD49A0A1680DF021FD4FA014
:103DB000E1680DF01DFD217C54A00DF019FD617C22
:103DC00057A00DF015FDA17C5BA00DF011FDE17C6D
:103DD0005EA00DF00DFD04F1200162A00DF008FDC4
:103DE00004F1140166A00DF003FD04F136016BA08F
:103DF0000DF0FEFC04F12A0170A00DF0F9FC76A094
:103E0000216C0DF0F5FCB4F848107BA00DF0F0FC2F
:103E10007EA0616C0DF0ECFC94F84A1083A00DF0CC
:103E2000E7FC87A0216D0DF0E3FC8AA0616D0DF029
:103E3000DFFC90A0A16D0DF0DBFC70BD72646174BD
:103E4000612D3E4C616E67756167653D25640D0AA5
:103E50000000000072646174612D3E4368617274F9
:103E6000547970653D25640D0A0000007264617428
:103E7000612D3E707265737355696E743D25640DD6
:103E80000A00000072646174612D3E576F726B4DC1
:103E90006F64653D25640D0A00000000776461745D
:103EA000612D3E546F7271756555696E743D256460
:103EB0000D0A000077646174612D3E66616272696B
:103EC000634E616D653D25640D0A00007764617481
:103ED000612D3E4D6178746F7256616C5F546F72E4
:103EE0004D6F64653D25640D0A00000072646174C5
:103EF000612D3E546172746F7256616C5F546F72C3
:103F00004D6F64653D25640D0A000000776461749F
:103F1000612D3E67617264653D25640D0A000000F5
:103F200077646174612D3E6469616D657465723D8D
:103F300025640D0A0000000077646174612D3E67FE
:103F4000617264655F4D3D25640D0A00776461749C
:103F5000612D3E6469616D657465725F4D3D2564D8
:103F60000D0A000077646174612D3E426F6C7444E9
:103F700069616D657465724172723D25730D0A0049
:103F800077646174612D3E426F6C74476172646541
:103F90004172723D25730D0A000000007764617460
:103FA000612D3E426F6C744469616D657465724148
:103FB00072725F4D3D25730D0A00000077646174D5
:103FC000612D3E426F6C7447617264654172725F2D
:103FD0004D3D25730D0A00002077646174612D3E0C
:103FE000546172746F7256616C5F426F6C744D6F86
:103FF00064653D25640D0A0077646174612D3E415E
:104000006E676C653D25640D0A000000776461747D
:10401000612D3E707265736574546F725F416E6797
:104020004D6F64653D25640D0A000000776461747E
:10403000612D3E676561723D25640D0A0000000038
:1040400077646174612D3E67656172746F723D259E
:10405000640D0A0077646174612D3E70726573654A
:1040600074746F725F73656E736F723D25640D0AB1
:104070000000000077646174612D3E746172746F9A
:10408000725F73656E736F723D25640D0A000000E8
:1040900070B504460D4640222946204600F088FCB3
:1040A00021460EA00DF0A4FB04F1320113A00DF087
:1040B0009FFB04F10A0117A00DF09AFB04F1140113
:1040C0001CA00DF095FB04F11E0122A00DF090FB49
:1040D00027A0E16B0DF08CFB70BD00007264617471
:1040E000612D3E617070656172616E63654E756DC4
:1040F0006265724172723D25730D0A0072646174CB
:10410000612D3E70617373576F72644172723D2509
:10411000730D0A0072646174612D3E5573657245BA
:10412000717569704E616D654172723D25730D0A3E
:104130000000000072646174612D3E557365724524
:10414000717569704E756D6265724172723D25734D
:104150000D0A00002072646174612D3E5573657212
:104160004E616D654172723D25730D0A00000000BD
:10417000202072646174612D3E5573696E675469C5
:104180006D653D25640D0A0030B500228B071C0FBC
:104190000F2303FA04F20B4B8C1053F82430934393
:1041A000084C8D1044F8253023468C1053F82430E9
:1041B0008C07240F00FA04F42343024C8D1044F8BA
:1041C000253030BD080001402DE9F04102460025B0
:1041D0000026002000230024002791F803C00CF0E3
:1041E0000F0591F803C00CF0100CBCF1000F03D0C8
:1041F00091F802C04CEA050591F800C0BCF1000F2F
:1042000031D0146800202BE04FF0010C0CFA00F3C1
:10421000B1F800C00CEA03069E4220D183004FF0A3
:104220000F0C0CFA03F7BC4305FA03FC4CEA040438
:1042300091F803C0BCF1280F06D14FF0010C0CFA25
:1042400000FCC2F814C00AE091F803C0BCF1480FAA
:1042500005D14FF0010C0CFA00FCC2F810C0401C54
:104260000828D1D31460B1F800C0BCF1FF0F34DDD1
:10427000546800202EE000F1080C4FF0010808FA05
:104280000CF3B1F800C00CEA03069E4221D1830072
:104290004FF00F0C0CFA03F7BC4305FA03FC4CEA91
:1042A000040491F803C0BCF1280F05D100F1080CFB
:1042B00008FA0CF8C2F8148091F803C0BCF1480F5A
:1042C00007D100F1080C4FF0010808FA0CF8C2F809
:1042D0001080401C0828CED35460BDE8F081000057
:1042E000F0B50A46002300240021002500F0004616
:1042F000B6F1004F02D11D4EF16901E01B4E71680D
:10430000C0F3034583B200F44016B6F5401F08D150
:1043100021F07061154E766826F07066134F7E604E
:1043200012E000F48016B6F5801F06D1032606FAC7
:1043300005F4A14341F0706106E0460D360103FA31
:1043400006F6B14341F0706122B1460D360103FA21
:1043500006F6314300F00046B6F1004F02D1034E9D
:10436000F16101E0014E7160F0BD0000000001400C
:104370000246002093680B400BB1012000E00020B2
:104380007047416170470161704700002DE9F041BD
:1043900005460E4600240027A04600BF19E0102164
:1043A0000E48FFF7EEFF0020FEF7EEFA0020FEF7C2
:1043B000EBFAFEF7C9FA8046FEF7C6FA0746102167
:1043C0000648FFF7E0FF47EA082025F81400601CC4
:1043D000C4B2B442E3DBBDE8F0810000000C014050
:1043E00000BFFEE710B500F001F810BD4AF6AA20A4
:1043F0000149086070470000003000402DE9FE438D
:10440000002400200090019002909F4FDFF87C82F2
:10441000FBF7ACFE0BF0A4FC0AF0E7FD0EF0C4FCC9
:104420000CF045FD0CF08AFD00F02AFA00F086FA47
:1044300000F06EFAFEF7BEFDFEF72EFB48200CF0F2
:10444000DFFCFEF713FC3C20FEF720FA06210520D6
:104450000CF06AFC062108460CF066FC06210720D9
:104460000CF062FC062108200CF05EFC05210920FE
:104470000CF05AFC05210A200CF056FC05210B20FB
:104480000CF052FC05210C200CF04EFCFEF7DAFA81
:1044900000F078FA0BF032FFFEF744FBFEF730FB3A
:1044A000044620460DF06EFF79480068C822B0FB34
:1044B000F2F1B1F1807F00D31DE021F07F40401E7A
:1044C0004FF0E022506150170F22002807DA13073F
:1044D0001E0E704B00F00F052D1F5E5503E01307F5
:1044E0001D0E6D4B1D5400BF00204FF0E022906167
:1044F0000720106100BF4FF4FA0000F097FA6749F7
:1045000008600846016866A00DF072F9694800F07D
:104510008DFA694908600846016868A00DF068F9DD
:104520006A4800F06FFA6A490880084602886749BD
:104530006848FFF707FB01226749684800F038FA2E
:104540006648017866A00DF053F9504A6348017837
:104550006748FFF7AFFB4FF4FF016648FFF7E4FB46
:1045600065496648FFF794FD6248807810B90120DC
:10457000604988705F488378614A624955480BF00A
:10458000B9FF614800F03EFA5A49A1F848000846D0
:10459000B0F848105DA00DF02BF920226349644863
:1045A00000F006FA62490868FDF7AAFE05462A46A9
:1045B0000B4660A00DF01CF95D494868FDF7A0FEB0
:1045C00005462A460B4664A00DF012F95849886842
:1045D000FDF796FE05462A460B4667A00DF008F942
:1045E0005349C868FDF78CFE05462A460B466AA06B
:1045F0000DF0FEF84E490869FDF782FE05462A4691
:104600000B466EA00DF0F4F84948818A74A00DF0B5
:10461000EFF84748C18A7AA00DF0EAF84448018BC8
:104620007FA00DF0E5F84248418B85A00DF0E0F841
:104630003F48818B89A00DF0DBF82E48C078062812
:104640001CD2DFE800F003070B0F131700208B4983
:10465000087013E01120894908700FE01C20874979
:1046600008700BE025208549087007E02E2083495B
:10467000087003E039208149087000BF00BFFBF7D4
:1046800077FDBDE8FE83000000307D0000507E0015
:104690001400002018ED00E000E400E0E00300203A
:1046A000546F7271756555696E745F43203D2025A6
:1046B000640D0A0000E07F00580400206F726469F6
:1046C0006E616C3D25640D0A0000000000207D0035
:1046D00054040020E477002000607E00560400208F
:1046E000676561724B696E643D25640D0A000000C8
:1046F0006C8600202874002000107D00A477002024
:1047000000407D00BC7C002000407E0020204D6FDA
:104710006469667956617253747275637456617216
:104720002E416E676C653D25640D0A0000F07F0028
:1047300084740020526573657450726573732E53D0
:10474000657450726573735F546F727175653D2542
:104750002E32660D0A000000526573657450726552
:1047600073732E53657450726573735F426F6C740C
:104770003D252E32660D0A005265736574507265D0
:1047800073732E53657450726573735F47656172FE
:104790003D252E32660D0A005265736574507265B0
:1047A00073732E53657450726573735F416E676CDB
:1047B000653D252E32660D0A0000000052657365C6
:1047C0007450726573732E53657450726573735FA2
:1047D00053656E736F723D252E32660D0A00000020
:1047E000526573657450726573732E4461634F75BF
:1047F00074446174615F543D25640D0A000000003B
:10480000526573657450726573732E4461634F759E
:1048100074446174615F423D25640D0A000000002C
:10482000526573657450726573732E4461634F757E
:1048300074446174615F473D25640D0A0000000007
:10484000526573657450726573732E61634F75742E
:10485000446174615F413D25640D0A0052657365D2
:104860007450726573732E4461634F757444617440
:10487000615F533D25640D0A0000000038000020F0
:104880000EB54FF46070ADF8000048208DF80300BD
:1048900069460F48FFF798FC07210220FFF774FCD8
:1048A00008210220FFF770FC09210220FFF76CFCB1
:1048B0004FF46070019000208DF808000C208DF8F6
:1048C000090001208DF80A0001A8FEF7B5FD0EBD14
:1048D000001001400146CA1701EB92729210A1EB41
:1048E000820292B9642091FBF0F200FB121050B9E1
:1048F0004FF4C87091FBF0F200FB121008B90120D0
:1049000070470020FCE70120FAE70020F8E70000EC
:1049100008B5012110200BF00DFA0F20ADF80000B2
:1049200048208DF8030003208DF8020069460248F4
:10493000FFF74AFC08BD00000010014008B5012146
:1049400018200BF0F7F93120ADF8000010208DF899
:10495000030003208DF8020069460848FFF734FC85
:1049600010210648FFF70FFD20210448FFF70BFD3B
:1049700001210348FFF707FD08BD000000100140BA
:10498000000C014008B51020ADF800008DF80300C0
:1049900003208DF8020069460448FFF715FC10213A
:1049A0000248FFF7F0FC0BF03DFF08BD0008014096
:1049B0002DE9F04105460C46164610211048FFF738
:1049C000E0FC03200BF068FFC4F307400BF064FF2A
:1049D000C4F307200BF060FFE0B20BF05DFF00278F
:1049E00005E000200BF058FF28706D1C7F1CB742BB
:1049F000F7D310210248FFF7C6FCBDE8F0810000A4
:104A0000000801403EB5044600200090019002904D
:104A10000025022221466846FFF7CAFF9DF80100E3
:104A20009DF8001040EA012528463EBD3EB50446EB
:104A30000020009001900290042221466846FFF772
:104A4000B7FF9DF8000000069DF8011040EA014004
:104A50009DF8021040EA01209DF8031040EA01058C
:104A600028463EBD2DE9F04106460C461746002576
:104A700000BF06E02046FFF7D9FF46F82500241DB9
:104A80006D1CBD42F6D3BDE8F08100BFFEE700001B
:104A90002DE9F04F85B04FF0010A03209E49C87000
:104AA00000209E4908700120887000204870042072
:104AB0000CF031F819200AF0A7FD9748007920B1D1
:104AC000012808D0022812D10BE095A20421084643
:104AD0000CF0FAF80BE093A2042108460CF0F4F86D
:104AE00005E091A2042108460CF0EEF800BF00BFDB
:104AF000894890F84A0018B90120874981F84A008E
:104B000000200090844890F84A00401E874911F820
:104B100030200023022104200CF090F87E48807899
:104B200010B901207C4988707B488078401E00EBDA
:104B300040007F4901EBC002012104200CF0C4F8C1
:104B4000754890F84A00401E784901EBC000406863
:104B50007149C86408468078401E00EB40007449E3
:104B600001EBC000C0686C49C96C484342F2107147
:104B7000B0FBF1F63046FDF789FB04460D4666486A
:104B80008078401E00EB4000694901EBC000C0681E
:104B90006149C96C484342F21071B0FBF1FB5846C1
:104BA000FDF774FB06460022624BFDF7E2F98046F2
:104BB00022462B46FDF7D0FB10D257488078401E86
:104BC00000EB40005A4901EBC000C0685249C96C73
:104BD000484342F21071B0FBF1F010E04E4880788B
:104BE000401E00EB4000524901EBC000C0684A493A
:104BF000C96C484342F21071B0FBF1F0401C4649C9
:104C000008650846407970B94BA2032104200CF0D6
:104C10005BF800200090404800230521026D04202D
:104C20000CF00CF84DE045A2032104200CF04CF8E8
:104C30003949086DFDF72AFB0446424A424BFDF70D
:104C4000B1FACDE902013449086DFDF71FFB0646B4
:104C50003C4A3D4BFDF7A6FA8046FDF738FB8346FC
:104C6000FDF714FB04460022324BFDF782F9CDE933
:104C70000001DDE90223FDF76FFB0CD22649086D28
:104C8000FDF704FB06462F4A2F4BFDF78BFA04462F
:104C9000FDF71DFB0CE02049086DFDF7F7FA06460D
:104CA000284A294BFDF77EFA0446FDF710FB401C0D
:104CB000049000200346009005210420049A0BF084
:104CC000BDFF224988680021FDF77AFB13D1124904
:104CD000C96C01EB81014800FDF7D3FA1B498860DC
:104CE00088680DF0ABFA194908830120184908704B
:104CF0000D20184908704FF0010A07E01FFA8AF1E9
:104D00001F2204200BF0B9FE0AF1010ABAF1050FC7
:104D1000F4DB05B0BDE8F08F2874002028000020E7
:104D2000426172004D706100507369006C86002012
:104D3000E47700200000E03F4E2E6D0066742E6C7C
:104D4000627300003D9B559FABADF53F847400201E
:104D50002B0000200D04002010B500240020144971
:104D600008700120887008464078012804D100208E
:104D700048700D200F49087004200BF0CCFE002273
:104D8000042108460BF0D8FF01240EE0042C06D1C4
:104D9000A1B24FF6E07204200BF06FFE04E0A1B266
:104DA0001F2204200BF069FE641C052CEEDB10BDF5
:104DB000280000200D04002010B500240020144914
:104DC00008700120887008464078012804D100202E
:104DD00048700D200F49087004200BF09CFE002243
:104DE000012104200BF0A8FF01240EE0012C06D1C4
:104DF000A1B24FF6E07204200BF03FFE04E0A1B236
:104E00001F2204200BF039FE641C052CEEDB10BDC4
:104E1000280000200D04002010B5002400201449B3
:104E200008700120887008464078012804D10020CD
:104E300048700D200F49087004200BF06CFE002212
:104E4000032104200BF078FF01240EE0032C06D18F
:104E5000A1B24FF6E07204200BF00FFE04E0A1B205
:104E60001F2204200BF009FE641C052CEEDB10BD94
:104E7000280000200D04002010B500240020174950
:104E80000870012088700846407801280AD114492A
:104E900008700020114948700120124908700D2047
:104EA0001149087004200BF036FE00220221042074
:104EB0000BF042FF01240EE0022C06D1A1B24FF606
:104EC000E07204200BF0D9FD04E0A1B21F220420FF
:104ED0000BF0D3FD641C052CEEDB10BD2800002078
:104EE000610400202B0000200D0400202DE9F04F6C
:104EF00085B04FF0000A04207249C8700020724942
:104F00000870012088700020487003200BF003FE19
:104F100019200AF079FB002000906A48B0F8482078
:104F20000023042103200BF089FE6648007920B19C
:104F3000012808D0022812D10BE064A20521032029
:104F40000BF0C2FE0BE062A2052103200BF0BCFEB9
:104F500005E060A2052103200BF0B6FE00BF00BFF4
:104F60005848807810B90120564988705549897889
:104F7000491E01EB4101584A02EBC101C868FDF727
:104F800085F906460022554BFDF79AF80446FDF7D1
:104F90009EF94C49886008468078401E00EB40002E
:104FA0004D4901EBC002012103200BF08DFE454865
:104FB000407970B9002000904248002302218268A5
:104FC00003200BF03BFE46A2032108460BF07CFEBB
:104FD0004DE03C498868FDF759F90446414A424B87
:104FE000FDF7E0F8CDE9020136498868FDF74EF992
:104FF00006463C4A3C4BFDF7D5F88046FDF767F97D
:105000008346FDF743F904460022384BFCF7B1FF15
:10501000CDE90001DDE90223FDF79EF90CD2294913
:105020008868FDF733F906462E4A2F4BFDF7BAF88C
:105030000446FDF74CF90CE022498868FDF726F993
:105040000646284A284BFDF7ADF80446FDF73FF920
:10505000401C049000200346009002210320049A83
:105060000BF0ECFD22A2032108460BF02DFE224896
:105070002249C860C8680DF0E1F8204948834FF024
:10508000000A18E001201E4908700EE0BAF1030F73
:1050900006D11FFA8AF01F22194909780BF0EDFC9E
:1050A00017480078401C16490870154800780628F3
:1050B000ECDB0AF1010ABAF1070FE3DB05B0BDE84A
:1050C000F08F000028740020280000204261720048
:1050D0004D70610050736900E47700200000E43FE8
:1050E0004E2E6D003D9B559FABADF53F0000E03F60
:1050F00066742E6C6273000000606A47847400203E
:105100003400002010B5002400201449087001204C
:10511000887008464078012804D1002048700D208E
:105120000F49087003200BF0F6FC00220521032034
:105130000BF002FE01240EE0052C06D1A1B24FF6C1
:10514000E07203200BF099FC04E0A1B21F220320BF
:105150000BF093FC641C062CEEDB10BD2800002035
:105160000D04002010B5002400201449087001200F
:10517000887008464078012804D1002048700D202E
:105180000F49087003200BF0C6FC00220421032005
:105190000BF0D2FD01240EE0042C06D1A1B24FF693
:1051A000E07203200BF069FC04E0A1B21F2203208F
:1051B0000BF063FC641C062CEEDB10BD2800002005
:1051C0000D04002010B500240020144908700120AF
:1051D000887008464078012804D1002048700D20CE
:1051E0000F49087003200BF096FC002201210320D8
:1051F0000BF0A2FD01240EE0012C06D1A1B24FF666
:10520000E07203200BF039FC04E0A1B21F2203205E
:105210000BF033FC641C062CEEDB10BD28000020D4
:105220000D04002010B5002400201449087001204E
:10523000887008464078012804D1002048700D206D
:105240000F49087003200BF066FC0022032108467A
:105250000BF072FD01240EE0032C06D1A1B24FF633
:10526000E07203200BF009FC04E0A1B21F2203202E
:105270000BF003FC641C062CEEDB10BD28000020A4
:105280000D04002010B500240020144908700120EE
:10529000887008464078012804D1002048700D200D
:1052A0000F49087003200BF036FC00220221032076
:1052B0000BF042FD01240EE0022C06D1A1B24FF604
:1052C000E07203200BF0D9FB04E0A1B21F220320FF
:1052D0000BF0D3FB641C062CEEDB10BD2800002075
:1052E0000D04002000B58BB03C4A07CA08AB07C3C9
:1052F0003A4A0C32D2E900109268CDE906020591D3
:10530000364A183207CA02AB07C319200AF07CF9E3
:1053100000200BF000FC00203149C87008460078DE
:10532000C8B930A2012100200BF0CEFC2C484078F7
:1053300020B92EA2022100200BF0C6FC284840789C
:10534000012804D12CA2022100200BF0BDFC002179
:1053500008460BF0BEFB22480078012819D108AAA4
:10536000012100200BF0B0FC1D48407820B902AAB2
:10537000022100200BF0A8FC19484078012804D134
:1053800005AA022100200BF09FFC012108460BF02A
:10539000A0FB002000901A4800230921C26B184688
:1053A0000BF04CFC0120174908700AE01F22154839
:1053B000017800200BF061FB12480078401C114975
:1053C0000870104800780928F0DB00200E490870AA
:1053D00001208870002048700BB000BD282E010805
:1053E00028740020456E676C69736800496D7065AC
:1053F0007269616C000000004D65747269630000A1
:10540000A47700202C0000202800002010B50024E4
:1054100000200BF080FB0022082110460BF08CFCD2
:1054200001240EE0082C06D1A1B24FF6E072002054
:105430000BF023FB04E0A1B21F2200200BF01DFBA8
:10544000641C092CEEDB00200349087001208870E1
:105450000020487010BD00002800002010B5002476
:1054600000200BF058FB0022052110460BF064FCD5
:1054700001240EE0052C06D1A1B24FF6E072002007
:105480000BF0FBFA04E0A1B21F2200200BF0F5FAAA
:10549000641C092CEEDB0020034908700120887091
:1054A0000020487010BD00002800002010B5002426
:1054B0000022042110460BF03FFC00200BF02BFBD8
:1054C00001240EE0042C06D1A1B24FF6E0720020B8
:1054D0000BF0D3FA04E0A1B21F2200200BF0CDFAAA
:1054E000641C092CEEDB0020034908700120887041
:1054F0000020487010BD00002800002010B50024D6
:1055000000200BF008FB0022012110460BF014FCD8
:1055100001240EE0012C06D1A1B24FF6E07200206A
:105520000BF0ABFA04E0A1B21F2200200BF0A5FAA9
:10553000641C092CEEDB00200549087001208870EE
:1055400008464078012801D10020487010BD0000B5
:105550002800002010B5002400200BF0DCFA002207
:10556000072110460BF0E8FB01240EE0072C06D1C2
:10557000A1B24FF6E07200200BF07FFA04E0A1B276
:105580001F2200200BF079FA641C092CEEDB0020AE
:1055900003490870012088700020487010BD000089
:1055A0002800002010B5002400200BF0B4FA0022DF
:1055B000062110460BF0C0FB01240EE0062C06D19C
:1055C000A1B24FF6E07200200BF057FA04E0A1B24E
:1055D0001F2200200BF051FA641C092CEEDB002086
:1055E00003490870012088700020487010BD000039
:1055F0002800002010B5002400200BF08CFA0022B7
:10560000032110460BF098FB01240EE0032C06D179
:10561000A1B24FF6E07200200BF02FFA04E0A1B225
:105620001F2200200BF029FA641C092CEEDB00205D
:1056300003490870012088700020487010BD0000E8
:105640002800002010B5002400200BF064FA00228E
:10565000022110460BF070FB01240EE0022C06D153
:10566000A1B24FF6E07200200BF007FA04E0A1B2FD
:105670001F2200200BF001FA641C092CEEDB002035
:10568000054908700120887008464078012801D13A
:105690000020487010BD0000280000202DE9F04FC8
:1056A00085B005209D49C87000209D4908700120E3
:1056B000887000204870192009F0A6FF05200BF023
:1056C0002AFA9648007920B1012808D0022812D180
:1056D0000BE094A2062105200BF0F6FA0BE092A253
:1056E000062105200BF0F0FA05E090A20621052026
:1056F0000BF0EAFA00BF00BF8848407970B98CA26D
:10570000032105200BF0E0FA0020009083480023DD
:105710000221426D05200BF091FA4DE085A2032194
:1057200005200BF0D1FA7D49486DFCF7AFFD04462A
:10573000824A834BFCF736FD804689467749486D9F
:10574000FCF7A4FD82467D4A7D4BFCF72BFD064607
:10575000FCF7BDFD0190FCF799FD04460022794B52
:10576000FCF707FC42464B46CDE90201FCF7F4FD8D
:105770000CD26A49486DFCF789FD06466F4A704BAA
:10578000FCF710FD0446FCF7A2FD0CE06349486DF0
:10579000FCF77CFD0646694A694BFCF703FD0446AD
:1057A000FCF795FD401C0490002003460090022168
:1057B0000520049A0BF042FA5848807810B901206D
:1057C0005649887055488078401E00EB40005E497D
:1057D00001EBC002012105200BF076FA4F488078DA
:1057E000401E00EB4000584901EBC00040694B49A6
:1057F0008865564908690021FCF7E2FD14D1474944
:10580000487958310DF088F80446FCF73AFD4F49C5
:10581000086108690CF012FD4C49888301204C494D
:1058200008700D204B4908703C48407968B9002049
:1058300000903A4800230421826D05200BF0FEF908
:105840003BA2052108460BF03FFA34484079012875
:105850004DD13249886DFCF719FD0446374A384B63
:10586000FCF7A0FCCDE902012C49886DFCF70EFD88
:105870008046324A324BFCF795FC0646FCF727FD82
:105880008346FCF703FD044600222E4BFCF771FB18
:10589000CDE90001DDE90223FCF75EFD0CD21F49D2
:1058A000886DFCF7F3FC0646244A254BFCF77AFC8E
:1058B0000446FCF70CFD0CE01849886DFCF7E6FC8B
:1058C00006461E4A1E4BFCF76DFC0446FCF7FFFC27
:1058D000401C8246002003465246042100900520C9
:1058E0000BF0ACF913A2052108460BF0EDF90120ED
:1058F000194908700AE01F221748017805200BF0AB
:10590000BCF815480078401C13490870124800780C
:105910000728F0DB05B0BDE8F08F000028740020F8
:1059200028000020426172004D70610050736900D0
:105930004E2E6D0066742E6C627300003D9B559F69
:10594000ABADF53F0000E03FE47700208474002019
:105950002B0000200D0400203500002010B500248D
:1059600000201449087001208870084640780128FA
:1059700004D1002048700D200F49087005200BF05D
:10598000CAF80022052108460BF0D6F901240EE0E2
:10599000052C06D1A1B24FF6E07205200BF06DF890
:1059A00004E0A1B21F2205200BF067F8641C072C4D
:1059B000EEDB10BD280000200D04002010B50024EF
:1059C000002014490870012088700846407801289A
:1059D00004D1002048700D200F49087005200BF0FD
:1059E0009AF80022042105200BF0A6F901240EE00C
:1059F000042C06D1A1B24FF6E07205200BF03DF861
:105A000004E0A1B21F2205200BF037F8641C072C1C
:105A1000EEDB10BD280000200D04002010B500248E
:105A20000020144908700120887008464078012839
:105A300004D1002048700D200F49087005200BF09C
:105A40006AF80022012105200BF076F901240EE00E
:105A5000012C06D1A1B24FF6E07205200BF00DF833
:105A600004E0A1B21F2205200BF007F8641C072CEC
:105A7000EEDB10BD280000200D04002010B500242E
:105A800000201449087001208870084640780128D9
:105A900004D1002048700D200F49087005200BF03C
:105AA0003AF80022062105200BF046F901240EE009
:105AB000062C06D1A1B24FF6E07205200AF0DDFFF8
:105AC00004E0A1B21F2205200AF0D7FF641C072CB6
:105AD000EEDB10BD280000200D04002010B50024CE
